:020000040800F2
:10000000A891012061020008AD7600084B59000854
:10001000A9760008450C0008C5CA000800000000C9
:10002000000000000000000000000000A101000826
:100030004B0E000800000000FD010008399C00087C
:100040007B0200087B0200087B0200087B0200089C
:100050007B0200087B0200087B0200087B0200088C
:100060007B0200087B0200087B020008C10C00082C
:100070007B020008D10C00087B0200087B0200080C
:10008000E10C00087B0200087B0200087B020008EC
:100090007B0200087B0200087B0200087B0200084C
:1000A0007B020008199D00087B0200087B02000803
:1000B000299D00087B0200087B02000861590008A6
:1000C000515900088159000871590008B599000874
:1000D0007B020008F9A4000809A500087B020008BB
:1000E0004D0E00087B0200087B0200087B0200081E
:1000F0007B0200087B0200087B0200087B020008EC
:100100007B020008858900087B0200087B0200084A
:100110007B0200087B0200087B0200087B020008CB
:100120007B020008F10C00087B020008010D0008AA
:100130007B02000800000000000000007B020008B5
:100140007B0200087B0200087B020008B1760008F1
:10015000110D0008210D0008310D000819A5000837
:100160007B0200087B0200087B0200087B0200087B
:100170007B0200087B020008000000000000000075
:100180007B0200087B020008DFF810D000F0E0FBE3
:1001900000480047B1600508AFF30080A891012036
:1001A0002C4B19680868B0E8F04F80F30988BFF35A
:1001B0006F8F4FF0000080F311887047000000003F
:1001C00008480068006880F308884FF0000080F35A
:1001D000148862B661B6BFF34F8FBFF36F8F00DF35
:1001E00000BF00BF08ED00E0DFF80C00016841F43B
:1001F00070010160704700BF88ED00E0EFF30980F7
:10020000BFF36F8F134B1A681EF0100F08BF20ED5D
:10021000108A20E9F04F106009B44FF0500080F3CD
:100220001188BFF34F8FBFF36F8F68F039F84FF02D
:10023000000080F3118809BC19680868B0E8F04F25
:100240001EF0100F08BFB0EC108A80F30988BFF3CE
:100250006F8F704788C00120EFF305807047000062
:100260000648804706480047FEE7FEE7FEE7FEE750
:10027000FEE7FEE7FEE7FEE7FEE7FEE7059D000876
:10028000890100082DE9F05F0546002092469B4653
:1002900088460646814640241BE02846414647469C
:1002A000224600F0BCFA53465A46C01A914110D378
:1002B00011461846224600F0A3FA2D1A67EB0108F2
:1002C0004F4622460120002100F09AFA17EB000960
:1002D0004E41201EA4F10104DFDC484631462A4687
:1002E0004346BDE8F09F2DE9F0410024061B25465A
:1002F00071F1000605DA01240027D0EB070067EB57
:100300000101161E73F1000605DA0027D2EB070281
:10031000012567EB0303FFF7B5FF86460E46174638
:100320009C46AC4204D00025D0EB050E65EB0106DF
:1003300024B10020D2EB000760EB030C704631467D
:100340003A466346BDE8F08140EA01039B0703D0CB
:1003500009E008C9121F08C0042AFAD203E011F804
:10036000013B00F8013B521EF9D27047D2B201E0C6
:1003700000F8012B491EFBD270470022F6E710B5AA
:1003800013460A4604461946FFF7F0FF204610BD03
:100390002DE9FE4F804681EA0300C00F0C46009015
:1003A00021F0004123F00045B8EB0200A94105D23D
:1003B0004046214690461C460B46024623F000402C
:1003C000104347D0270DC7F30A00C3F30A51029028
:1003D000401A019040286BDAC3F3130040F4801BED
:1003E0000098924620B10023D2EB030A63EB0B0B7B
:1003F00001985946C0F14002504600F001FA064605
:100400000D4650465946019A00F019FA10EB0800C3
:100410006141002487EA115284EAE7731A4340D00D
:10042000009A62B3019A012A4FEA075215DC001BB9
:1004300061EB02014FF0004202EA0752CDE90042AF
:10044000001C41F5801132462B4600F019FA03B02A
:10045000BDE8F08F40462146F9E7001B61EB020141
:10046000001C41F5801300185B412018A2F500170D
:1004700047EB030140EAD570B6196D4111E06D08F4
:100480004FEA360645EAC0754FEA0752001B61EB9A
:100490000201001C41F5801149084FEA30000019A3
:1004A000514132462B4603B0BDE8F04F00F0D9B9B8
:1004B0000098012240000023D0EB020263EBE073BE
:1004C000009821464FEAE074B8EB000061EB0401AC
:1004D000E9E783F000435BE781F0004158E72DE94D
:1004E000FE4F81EA030404F0004421F0004100942F
:1004F0004FF0000B23F0004350EA01045ED052EAB3
:1005000003045BD0C3F30A54C1F30A552C44A4F28C
:10051000F3340194A0FB0254C1F3130141F48011A0
:10052000C3F3130343F4801301FB024400FB034EA7
:10053000840A970A44EA815447EA8357A4FB076870
:1005400002958D0A05FB07854FEA932C04FB0C549A
:100550002705029D4FEA065847EA1637B5EB08050E
:100560006EEB070C870E920E47EA811742EA831260
:10057000A7FB0201B6EB0B0164EB00042B0D43EA71
:100580000C335E1844EB1C50DA465146E7FB02017F
:10059000C5F313044FEA0B3343EA14534FEA043212
:1005A000019C43EA0603A4F10C040294009CCDE9EB
:1005B00000B400F065F903B0BDE8F08F00200146FB
:1005C000F9E72DE9F04D81EA030404F0004B21F036
:1005D000004514464FF0000A23F0004150EA05029E
:1005E00020D054EA01021DD0C5F30A570246C5F3D4
:1005F0001303C1F31300C1F30A5640F4801543F40A
:100600008013A7EB0608101BD64608F2FD3873EBE3
:10061000050002D308F1010801E092185B41B8F12E
:10062000000F03DA00200146BDE8F08D00204FF4F2
:100630008011064684460EE0171B73EB050705D3B1
:10064000121B63EB050306434CEA010C49084FEA11
:10065000300092185B4150EA0107EDD152EA0300E5
:1006600012D082EA040083EA0501084305D0101B7A
:10067000AB4106D20122002306E000224FF00043E6
:1006800002E06FF0010253101AEB06004CEB085128
:1006900010EB0A0041EB0B01BDE8F04D00F0E1B8B2
:1006A0000EB5C10F80EAE0700844CA07002140F28D
:1006B00033438DE80E000A460B4600F0E1F803B024
:1006C00000BD0EB540F2334102910021CDE9001189
:1006D0000A460B4600F0D4F803B000BD70B5C1F374
:1006E0000A5201F000450024C1F3130140F2FF3328
:1006F00041F480119A4201DA002070BD40F2334388
:100700009A42A2F2334203DC524200F088F800E041
:1007100090402C43F1D0404270BDC1F30A5210B555
:10072000C1F3130140F2FF3341F480119A4201DA20
:10073000002010BD40F233439A42A2F2334203DC60
:10074000524200F06CF810BD904010BD00F0004225
:1007500030F000400AD0C10D01F56071C0F3160001
:1007600042EA0151C2084007114370470020014688
:100770007047000030B5041E71F1000404DB4FF037
:100780000044404264EB0101141E73F1000405DBD8
:100790001C464FF00043524263EB04038B4208BFF8
:1007A000824230BD30B5041E71F1000404DB4FF00D
:1007B0000044404264EB0101141E73F1000405DBA8
:1007C0001C464FF00043524263EB0403994208BFBA
:1007D000904230BD30B50B46014600202022012456
:1007E00009E021FA02F59D4205D303FA02F5491BFF
:1007F00004FA02F52844151EA2F10102F1DC30BD15
:10080000202A04DB203A00FA02F1002070479140D0
:10081000C2F1200320FA03F3194390407047202AC5
:1008200004DB203A21FA02F00021704721FA02F39A
:10083000D040C2F120029140084319467047202A57
:1008400006DBCB17203A41FA02F043EAE07306E0F8
:1008500041FA02F3D040C2F1200291400843194608
:10086000704710B5141E73F1000408DA401C41F102
:10087000000192185B411A4301D120F0010010BD24
:100880002DE9F04D92469B4611B1B1FA81F202E09A
:10089000B0FA80F220329046FFF7B2FF04460F46CE
:1008A00040EA0A0041EA0B0153465A46084313D076
:1008B000114653EA010019D0C8F140025046FFF733
:1008C000AEFF05460E46504659464246FFF798FF92
:1008D000084305D0012004E020463946BDE8F08DEC
:1008E0000020054346EAE0762C4337430A98630527
:1008F000E40AA0EB08000022FD0A44EA47540A304B
:1009000002D500200146E9E7010510196941DDE93A
:10091000084500196941BDE8F04DA2E7C1F30A524C
:10092000C1F3130140F2FF3341F480119A4202DA1D
:1009300000200146704740F233439A42A2F233420C
:1009400002DC5242FFF76BBFFFF75ABF002070472F
:10095000064C074D06E0E06840F0010394E807000C
:1009600098471034AC42F6D3FFF712FC54DD070869
:1009700094DD070870B58C1810F8015B15F00703BB
:1009800001D110F8013B2A1106D110F8012B03E028
:1009900010F8016B01F8016B5B1EF9D12B0705D430
:1009A0000023521E0DD401F8013BFAE710F8013B79
:1009B000CB1A921C03E013F8015B01F8015B521E95
:1009C000F9D5A142D8D3002070BD000055494A682E
:1009D00022F440324A604A6843681A434A60026817
:1009E000526822F4807203685A6002685368026990
:1009F00043EA022203685A600268526822F0407299
:100A000003685A600268526883681A4303685A6030
:100A10000268926822F4006203689A600268926831
:100A2000C3681A4303689A603F4B826A9A4218D09F
:100A30000268926822F0706203689A6002689268A5
:100A4000836A1A4303689A600268926822F04052EF
:100A500003689A6002689268C36A1A4303689A60DE
:100A60000BE00268926822F0706203689A60026884
:100A7000926822F0405203689A600268926822F0FD
:100A8000020203689A6002689368027E43EA4202A7
:100A900003689A602022125CA2B10268526842F494
:100AA000006203685A600268526822F46042036878
:100AB0005A6002685368426A521E43EA423203682F
:100AC0005A6005E00268526822F4006203685A60C6
:100AD0000268D26A22F470020368DA620268D36A9A
:100AE000828B521E43EA02520368DA6202689268FD
:100AF00022F4007203689A600268936890F83020CC
:100B000043EA422203689A600268926822F4806293
:100B100003689A6002689368426943EA8222036824
:100B20009A607047002301400100000F10B50124B6
:100B30002102034800F07EFF00B10024204610BDD2
:100B4000000002407047000010B5044621460248EC
:100B500003F02CF910BD00004CC2012010B5044870
:100B600003F037F9042801D0012010BD0020FCE774
:100B70004CC2012010B5002400F014F8012801D067
:100B8000012010BD064803F045FA044634B94FF47D
:100B90000061034802F0C0FF00B101242046F0E7E5
:100BA0004CC2012008B501200090FFF7BFFF08B933
:100BB000002000909DF8000008BD00002DE9F041E4
:100BC00004460D461646002733462A462146044869
:100BD00003F030FB00B101273846BDE8F08100008A
:100BE0004CC2012008B50120009000231A46694636
:100BF0000248006855F0A6FF08BD00000400002070
:100C00002DE9F04104460D461646002733462A4694
:100C10002146044803F0C0FB00B101273846BDE877
:100C2000F08100004CC2012008B502200090002392
:100C30001A4669460248006855F084FF08BD000066
:100C40000400002000BFFEE70448007820B1002027
:100C500002490870012070470020FCE78C0000204A
:100C60003EB505460C464FF47A7004210F4A012325
:100C7000CDE90021029003222A210D4801F036F926
:100C80000A4840780949097801F00F0140EA01203B
:100C9000C0F1F00028800548C0780449897801F047
:100CA0000F0140EA012020803EBD000088000020A6
:100CB000EC01002001200149087070478C000020E1
:100CC00010B5024800F0B2FB10BD00004002002049
:100CD00010B5024800F0AAFB10BD0000A0020020E1
:100CE00010B5024800F0A2FB10BD0000F8C40120BE
:100CF00010B5024800F09AFB10BD000058C5012055
:100D000010B5024800F092FB10BD0000D0C20120D7
:100D100010B5024800F08AFB10BD000080030020DF
:100D200010B5024800F082FB10BD0000B8C50120DC
:100D300010B5024800F07AFB10BD000098C40120F5
:100D40000146087810381823B0FBF3F20848805C9D
:100D5000C865032A05D908686FF30900001D886576
:100D600003E008686FF309008865886D704700002C
:100D7000A49E0608014600208A6A8B69CBB932B16D
:100D8000012A0DD0022A03D0032A10D10EE000BFA1
:100D9000CB6A03F08073B3F1807F00D1012007E0BC
:100DA000CB6AB3F1C07F00D1012001E000E000BFB9
:100DB00034E08B69B3F5005F1AD132B1012A07D054
:100DC000022A03D0032A11D10AE000BF01200EE05D
:100DD000CB6A03F08073B3F1807F00D1012006E07D
:100DE000CB6AB3F1C07F00D1012000E000BF15E065
:100DF00032B1012A05D0022A04D0032A0CD103E023
:100E000000BF00BF012008E0CB6A03F08073B3F19C
:100E1000807F00D1012000E000BF00BF704730B5E7
:100E20000468246824F4802405682C6004686360E6
:100E30008468402C04D10468A2600468E16003E087
:100E40000468A1600468E26030BD704710B54FF4DB
:100E5000005000F0E7FC10BD72B600BFFEE730B5F1
:100E600004460D4600222946204600F001F830BD18
:100E7000F0B50346012500241148407A01281CDA08
:100E800000200F4E767A0E4FB8553846467A001D30
:100E900040F82630001F467A083082553E46707A68
:100EA000461C7E72044604F1300008703A204870F7
:100EB0002F2088700020C87000252846F0BD000053
:100EC000480E002070B50A480468001D0568001D22
:100ED0000668344454B108220649204605F091FEC4
:100EE000042204491031284605F08BFE70BD000035
:100EF000107AFF1F4AC00120024600BF92F83C0052
:100F0000012801D102207047012082F83C0000BF77
:100F1000087C012806D11068406840F04000136842
:100F2000586005E01068406820F040001368586081
:100F300010684068114B184013685860106840688A
:100F40000B681843136858604868136858628868CB
:100F5000136898621068406820F01F00136858609A
:100F6000106840688B899BB218431368586000BFB3
:100F7000002082F83C0000BF00BFC4E7FFFD3FFF38
:100F800038B502460020009000BF92F83C000128CE
:100F900001D1022038BD012082F83C0000BF086862
:100FA000092816D91068C0680C780A3C04EB44057F
:100FB0000724AC40A0431468E0600C780A3C04EBC2
:100FC00044048868A0401468E46820431468E06022
:100FD00013E0106800690C7804EB44050724AC406A
:100FE000A043146820610C7804EB44048868A04096
:100FF000146824692043146820614868072817D2C0
:101000001068406B0C79641E04EB84051F24AC400F
:10101000A04314686063088880B20C79641E04EBF6
:101020008404A0401468646B20431468606331E05A
:1010300048680D2817D21068006B0C79E41F04EB88
:1010400084051F24AC40A04314682063088880B244
:101050000C79E41F04EB8404A0401468246B204343
:101060001468206316E01068C06A0C790D3C04EB2C
:1010700084051F24AC40A0431468E062088880B255
:101080000C790D3C04EB8404A0401468E46A20430E
:101090001468E062194B1A4C1068A04206D1086827
:1010A000122803D1586840F480005860144C10682E
:1010B000A0421CD10868102802D00868112816D157
:1010C000586840F400005860086810280FD10D4897
:1010D00000680D4CB0FBF4F000EB80004000009085
:1010E00002E00098401E009000980028F9D100BF4F
:1010F000002082F83C0000BF00BF4BE70023014006
:101100000020014084C0012040420F0001460868D1
:10111000C06C704770B5044600250CB9012070BD45
:101120001549A06A884200D000BF206C30B9204623
:1011300000F024F80020606484F83C00206C00F08B
:10114000100088B9206C20F4885040F00200206420
:101150002046FFF73BFC00206064206C20F002007A
:1011600040F00100206400E0012500BF002084F869
:101170003C0000BF2846D2E70100000F10B586B042
:101180000446142101A8FFF7F8F81949206888429D
:101190002BD100BF002000901648006840F48070FA
:1011A000144908600846006800F48070009000BF91
:1011B00000BF00BF002000900E481438006840F0C7
:1011C00001000C49143908600846006800F001006D
:1011D000009000BF00BF0220019003200290002079
:1011E000039001A9044800F02BFB06B010BD0000DD
:1011F00000200140443802400000024008B501468A
:101200000020009000BF91F83C00012801D102208D
:1012100008BD012081F83C0000BF0868806800F02C
:101220000100A0B90868806840F001000B68986070
:101230003F4800683F4BB0FBF3F000EB40000090EC
:1012400002E00098401E009000980028F9D108683C
:10125000806800F00100002860D0086C40F2016353
:10126000984340F4807008640868406800F4806027
:1012700028B1086C20F4005040F480500864086CD9
:1012800000F48050B0F5805F04D1486C20F0060077
:10129000486401E00020486400BF002081F83C0061
:1012A00000BF254A6FF022000B681860506800F0FC
:1012B0001F0018BB214B0868984213D0204B0868C8
:1012C000984204D1101D006800F01F0050B11D4B62
:1012D000086898422AD11848001D006800F01F00D5
:1012E000102823D20868806800F04050F0B90868E0
:1012F000806840F080400B68986017E00F4B0868EA
:10130000984213D10868806800F0405070B90868AE
:10131000806840F080400B68986007E0086C40F0FF
:1013200010000864486C40F00100486400206FE73A
:1013300084C0012040420F000023014000200140F2
:10134000002101400022014070B50446A56D00F067
:101350007FFB064694F83500022808D0802060659F
:1013600000BF002084F8340000BF012070BD206859
:10137000006820F01600216808602068406920F0AD
:10138000800021684861206C08B9A06C28B12068F1
:10139000006820F00800216808602068006820F0DC
:1013A00001002168086010E000F052FB801B052856
:1013B0000BD920206065032084F8350000BF002091
:1013C00084F8340000BF0320D0E72068006800F0F4
:1013D00001000028E8D194F85C103F208840A86004
:1013E000012084F8350000BF002084F8340000BFDD
:1013F00000BFBBE7014691F83500022803D08020EA
:10140000486501207047052081F8350008680068AC
:1014100020F001000A6810600020F3E70146486DE3
:101420007047014691F8350070470000F8B5044652
:10143000002000908C4800684FF41651B0FBF1F783
:10144000A56D2E6894F85C1008208840304098B153
:101450002068006800F0040070B12068006820F087
:1014600004002168086094F85C1008208840A86097
:10147000606D40F00100606594F85C1001208840C8
:10148000304068B12068406900F0800040B194F8B5
:101490005C1001208840A860606D40F0020060652B
:1014A00094F85C1004208840304068B120680068DF
:1014B00000F0020040B194F85C1004208840A8605D
:1014C000606D40F00400606594F85C101020884066
:1014D000304078B32068006800F0080050B394F8FA
:1014E0005C1010208840A8602068006800F480200C
:1014F00080B12068006800F4002028B9206CC8B1D1
:101500002046216C884715E0A06C98B12046A16C5C
:1015100088470FE02068006800F4807028B92068D0
:10152000006820F0080021680860206C10B1204697
:10153000216C884794F85C102020884030400028B7
:1015400065D02068006800F0100000285FD094F893
:101550005C1020208840A86094F83500052828D128
:101560002068006820F01600216808602068406943
:1015700020F0800021684861206C08B9A06C28B177
:101580002068006820F008002168086094F85C106A
:101590003F208840A860012084F8350000BF00206B
:1015A00084F8340000BF206D10B12046216D8847BB
:1015B000F8BD2068006800F4802080B120680068D1
:1015C00000F4002028B9606C10B12046616C884797
:1015D0001DE0E06BD8B12046E16B884717E020683A
:1015E000006800F4807068B92068006820F010007E
:1015F00021680860012084F8350000BF002084F8CD
:10160000340000BFE06B10B12046E16B8847606D8D
:1016100038B3606D00F00100F0B1052084F83500AA
:101620002068006820F001002168086000BF009871
:10163000401C0090B84200D905E02068006800F026
:1016400001000028F3D100BF012084F8350000BF5D
:10165000002084F8340000BFE06C10B12046E16C3B
:10166000884700BFA4E7000084C001202DE9F041B5
:101670000446002500F0ECF9074614B90120BDE846
:10168000F081606A00B100BF022084F8350000BF1D
:10169000002084F8340000BF2068006820F00100BA
:1016A000216808600AE000F0D3F9C01B052805D9BD
:1016B00020206065032084F83500E0E7206800689A
:1016C00000F001000028EED120680568214805409F
:1016D000D4E901010843E1680843216908436169CD
:1016E0000843A1690843E1690843216A08430543A7
:1016F000606A042803D1D4E90B010843054320683C
:1017000005602068456925F00705606A0543606A41
:1017100004280DD1A06A0543E06A48B12046FFF7CE
:1017200029FB28B140206065012084F83500A6E738
:10173000206845612046FFF703FB064694F85C10DD
:101740003F208840B06000206065012084F83500AB
:10175000002094E73F8010F02DE9F04704460D4645
:1017600016461F464FF00008D4F8589000BF94F872
:101770003400012802D10220BDE8F087012084F85E
:10178000340000BF94F83500012825D1022084F8E8
:101790003500002060653B46324629462046FFF76B
:1017A0003EFB94F85C103F208840C9F80800206890
:1017B000006840F0160021680860206C28B120689D
:1017C000006840F00800216808602068006840F068
:1017D00001002168086006E000BF002084F83400A2
:1017E00000BF4FF002084046C6E7000070B504464F
:1017F00000F02EF906462546681C10B10448007812
:10180000054400BF00F024F9801BA842FAD370BD44
:101810001000002010B50446B4F5005F01D1FFF7B9
:1018200049FA10BD10B5044604480068204020B1B4
:10183000024804602046FFF7EDFF10BD143C014054
:10184000F8B502460B460025002400200021D6E012
:10185000012606FA01F51E6806EA0504AC4274D1B9
:101860001E7906F00306012E04D01E7906F0030649
:10187000022E13D190684F000326BE40B0434F00A4
:10188000DE68BE4030439060506801268E40B04311
:101890001E79C6F300168E40304350601E7906F064
:1018A0000306032E09D0D0684F000326BE40B04384
:1018B0004F009E68BE403043D0601E7906F003069C
:1018C000022E13D1CF0802F1200656F827004E074A
:1018D000F70E0F26BE40B0434F07FF0E1E69BE40F5
:1018E0003043CF0802F1200646F8270010684F0069
:1018F0000326BE40B0431E7906F003064F00BE40EB
:10190000304310605E6806F44036002E76D000BF8B
:10191000002600963C4E366846F480463A4F3E60BC
:101920003E46366806F48046009600BF00BF374E3C
:101930008F0856F827008E07370F0F26BE40B0439A
:10194000334EB24202D1002624E057E0314EB2427B
:1019500001D101261EE0304EB24201D1022619E02B
:101960002E4EB24201D1032614E02D4EB24201D1D7
:1019700004260FE02B4EB24201D105260AE02A4E82
:10198000B24201D1062605E0284EB24201D1072617
:1019900000E008268F073F0FBE4030431B4E8F08E4
:1019A00046F82700224E3068A0435E6806F4801691
:1019B00006B120431E4E3060361D3068A0435E687D
:1019C00006F4001606B12043194E361D3060184E3D
:1019D000361F3068A0435E6806F4003606B1204327
:1019E000134E361F3060361F3068A0435E6806F421
:1019F000803606B120430E4E083E3060491C102947
:101A0000FFF426AFF8BD000044380240083801401A
:101A1000000002400004024000080240000C0240A6
:101A2000001002400014024000180240001C024056
:101A3000083C0140024613690B400BB1012000E055
:101A4000002070470AB1816101E00B048361704797
:101A50000148006870470000080000207047704788
:101A60002DE9F84F0446206847692068D0F80480C3
:101A7000002594F83E90C7F3002040B1C8F3002041
:101A800028B145F001056FF4807021684861C7F303
:101A9000402040B1C8F3002028B145F002056FF4A2
:101AA000007021684861C7F3802070B3C8F300203C
:101AB00058B3CA46B4F82AB094F83D60206B009041
:101AC000BAF1200F0FD1BBF1000F0CD1212E06D09F
:101AD000292E04D0282E06D10098212803D1204693
:101AE00004F0F8FD11E06FF480602168486145F072
:101AF0000405B9F1100F02D0B9F1400F05D12068EB
:101B0000006840F4007021680860C7F3C02040B14D
:101B1000C8F3002028B145F008056FF40060216883
:101B200048612DB1206C28432064204603F0C4FF97
:101B3000BDE8F88F2DE9F04705464FF00009286809
:101B40004668D5F82CA095F83E7095F83D80102F8A
:101B500001D0402F75D12868D0F8189028684469C2
:101B600004F0010060B9BAF52A0F02D0BAF12A4F89
:101B700001D1012000E00020012801D1BDE8F0875B
:101B800004F0010048B1C6F3402030B1284603F00C
:101B9000FFFE284604F0A4FBB7E0C4F3C00030B158
:101BA000C6F3402018B1284604F051FAADE0C4F362
:101BB000400030B1C6F3402018B1284604F05CFA6A
:101BC000A3E0C9F3800040B32868406800F40060D7
:101BD000B0F5006FE0D0C4F3C01048B1C6F3802068
:101BE00030B1C4F3800018B9284604F0C4F98CE081
:101BF000C4F380000028CFD0C6F340200028CBD00B
:101C0000B8F1210F03D1284604F065F97DE0402F9B
:101C10007BD1284604F0B3FB77E02868406800F4E5
:101C20000060B0F5006F70D0C4F3801050B1C6F3FF
:101C3000802038B1C4F3800020B9284604F0C9F8E8
:101C400063E00BE0C4F3800000285ED0C6F34020C0
:101C500000285AD0284604F024F856E0286C10B129
:101C60002868446904E02868D0F818902868446916
:101C7000C4F3400060B1C6F3402048B1286C10B1F5
:101C80002868D0F818904946284604F0EBFC3CE060
:101C9000C4F3001030B1C6F3402018B1284604F058
:101CA0006DFD32E0B8F1210F02D0B8F1290F16D145
:101CB000C4F3C01048B1C6F3802030B1C4F3800033
:101CC00018B9284604F0ABFC1FE0C4F38000E0B173
:101CD000C6F34020C8B1284604F094FC15E0C4F3D4
:101CE000801048B1C6F3802030B1C4F3800018B929
:101CF000284604F064FC08E0C4F3800028B1C6F371
:101D0000402010B1284604F04DFC00BF36E7704774
:101D100070B504460CB9012070BD94F83D0028B997
:101D2000002084F83C00204600F064FA242084F867
:101D30003D002068006820F00100216808602068EC
:101D4000006840F40040216808602068006820F4C2
:101D500000402168086001F013FC05465C4960689A
:101D6000884206D85B48854201D2012007E0002066
:101D700005E05948854201D2012000E000200128F9
:101D800000D1C9E75548B5FBF0F62068406820F05F
:101D90003F003043216848604D496068884201D85F
:101DA000701C07E04FF4967070434FF47A71B0FBEB
:101DB000F1F0401C2168096A21F03F0108432168C5
:101DC000086243496068884214D8681E6168490007
:101DD000B0FBF1F0401CC0F30B00042801D204203A
:101DE0003DE0681E61684900B0FBF1F0401CC0F3A3
:101DF0000B0034E0A06838B9681E616801EB41014E
:101E0000B0FBF1F0401C0AE0681E616801EBC10202
:101E100002EB0111B0FBF1F0401C40F48040C0F334
:101E20000B0008B901201AE0A06848B9681E616873
:101E300001EB4101B0FBF1F0401CC0F30B000CE0E2
:101E4000681E616801EBC10202EB0111B0FBF1F009
:101E5000401CC0F30B0040F4804040F40040216877
:101E6000C9694CF6FF72914308432168C861D4E9FF
:101E7000070108432168096821F0C001084321686F
:101E80000860D4E9031008432168896848F2FF32EA
:101E90009143084321688860D4E90501084321681B
:101EA000C96821F0FF0108432168C8602068006804
:101EB00040F001002168086000202064202084F8A0
:101EC0003D000020206384F83E0000BF24E70000AE
:101ED000A086010080841E0000093D0040420F00E2
:101EE0007047704770477047704700002DE9FC5FEE
:101EF00004460F4690469946DDE90CAB0E9EFFF76F
:101F0000A7FD054694F83D00202870D11923012231
:101F1000B5492046009504F0F7FC10B10220BDE859
:101F2000FC9F00BF94F83C00012801D10220F6E795
:101F3000012084F83C0000BF2068006800F0010028
:101F400028B92068006840F0010021680860206816
:101F5000006820F4006021680860222084F83D00B9
:101F6000402084F83E0000202064C4F824A0A4F897
:101F70002AB0608D20859D48E0624B464246394636
:101F80002046CDE9006504F05DFA08B10120C6E7FE
:101F9000208D88B900BF0020019020684069019021
:101FA00020688069019000BF00BF2068006840F48D
:101FB00000702168086040E0208D012818D1206859
:101FC000006820F480602168086000BF0020019054
:101FD00020684069019020688069019000BF00BFBF
:101FE0002068006840F400702168086025E0F8E08F
:101FF000208D022816D12068006820F480602168B6
:1020000008602068006840F400602168086000BF34
:10201000002001902068406901902068806901904B
:1020200000BF0AE000BF00200190206840690190D5
:1020300020688069019000BF00BFC3E0208D0328A5
:102040007ED8208D012815D12A463146204604F03D
:1020500037FD08B1012062E720680069616A0870F5
:10206000606A401C6062208D401E2085608D401E8D
:102070006085A7E0208D02282AD1334600225C49E2
:102080002046009504F040FC08B1012047E7206895
:10209000006840F400702168086020680069616A87
:1020A0000870606A401C6062208D401E2085608D33
:1020B000401E608520680069616A0870606A401C83
:1020C0006062208D401E2085608D401E608579E015
:1020D0003346002246492046009504F015FC08B11D
:1020E00001201CE72068006820F4806021680860F7
:1020F00020680069616A0870606A401C6062208D17
:10210000401E2085608D401E608533460022384980
:102110002046009504F0F8FB08B10120FFE6206896
:10212000006840F400702168086020680069616AF6
:102130000870606A401C6062208D401E208500E0AF
:1021400010E0608D401E608520680069616A08703B
:10215000606A401C6062208D401E2085608D401E9C
:1021600060852FE02A463146204604F0A9FC08B1DC
:102170000120D4E620680069616A0870606A401C2A
:102180006062208D401E2085608D401E6085206825
:102190004069C0F38000A8B1208D032805D12068D4
:1021A000006820F480602168086020680069616A26
:1021B0000870606A401C6062208D401E2085608D22
:1021C000401E6085208D00287FF438AF202084F8E1
:1021D0003D00002084F83E0000BF84F83C0000BFB2
:1021E0009DE602209BE60000020010000000FFFFB9
:1021F0000400010010B586B00446142101A8FEF7C2
:10220000BCF86349206888425CD100BF0020009080
:102210006048006840F002005E49086008460068B7
:1022200000F00200009000BF00BFC020019012200B
:10223000029000200390032004900420059001A93F
:102240005548FFF7FDFA00BF0020009051481030BC
:10225000006840F400104F491031086008460068DB
:1022600000F40010009000BF00BF4C484C490860CB
:102270004005486000214A488160C1604FF4806198
:102280000161002141618161C16101624162FFF729
:10229000EDF908B1FEF7E0FD00BF4148A06384639B
:1022A00000BF002205211F2000F03AF91F2000F096
:1022B00023F900220521202000F032F9202000F02F
:1022C0001BF962E03749206888425ED100BF0020D8
:1022D00000903048006840F002002E49086008462F
:1022E000006800F00200009000BF00BF4FF44060A3
:1022F00001901220029000200390032004900420FB
:10230000059001A92448FFF79BFA00BF0020009028
:1023100020481030006840F480001E4910310860E9
:102320000846006800F48000009000BF00BF1B4812
:1023300030301D4908604FF06060486000211A4845
:102340008160C1604FF48061016100214161816160
:10235000C16101624162FFF789F908B1FEF77CFDB6
:1023600000BF1148A063846300BF00220521212023
:1023700000F0D6F8212000F0BFF80022052122202D
:1023800000F0CEF8222000F0B7F806B010BD000033
:102390000054004030380240000402401060024007
:1023A0004002002000580040A00200207047704703
:1023B00003480068034909780844014908607047E8
:1023C000080000201000002010B50D48006840F4FF
:1023D00000700B4908600846006840F4806008609F
:1023E0000846006840F480700860032000F0D6F8CA
:1023F0000F2000F007F800F055F8002010BD000095
:10240000003C0240F0B587B004460026002700BF1C
:10241000002000901E48006840F001001C49086040
:102420000846006800F00100009000BF00BF01A94D
:1024300002A801F07DF801F0B3F846001548B6FB9C
:10244000F0F0471E14481549086040F2E731134880
:10245000C1604760002101618160816102F00CFC74
:10246000054695B90D4802F073FC05466DB9192073
:1024700000F042F8102C07D200222146192000F06B
:102480004FF80748046000E00125284607B0F0BD7A
:102490004438024040420F000000014018C60120AD
:1024A0000C00002008B500BF002000901148006813
:1024B00040F480400F4908600846006800F48040FE
:1024C000009000BF00BF00BF00200090081F006800
:1024D00040F08050091F08600846006800F08050F6
:1024E000009000BF00BF00220F21901E00F018F8DE
:1024F00008BD0000443802400146084600280DDBB4
:1025000000BF00BF00F01F0301229A4043099B0057
:1025100003F1E023C3F8002100BF00BF00BF7047F4
:102520002DE9F05F80460D46164600270AF00CFBA9
:10253000074639462A46334601F00700C0F1070A2C
:10254000BAF1040F02D94FF0040A01E0C0F1070A02
:10255000D14600F1040ABAF1070F02D24FF0000A87
:1025600001E0A0F1030AD4464FF0010A0AFA09FA81
:10257000AAF1010A0AEA020A0AFA0CFA4FF0010B60
:102580000BFA0CFBABF1010B0BEA030B4AEA0B0451
:10259000214640460AF0E0FABDE8F09F00BF00F097
:1025A0000702064B19684FF6FF031940044B0B4313
:1025B00043EA0221014B196000BF70470CED00E0B7
:1025C0000000FA057047024610684162002070471B
:1025D000F0B5034615461868446A21B944EA054037
:1025E0001E68B06219E01868806A04EB104400228B
:1025F00008E0186800F5827050F8220004EB1044DF
:10260000501CC2B2481E9042F3D844EA05471868ED
:1026100000F582704E1E40F826700020F0BD10B507
:102620000446D4F8E00408F0B4FB10BD70B50446CD
:102630000D4605EBC50304F1140101EB8301CA68E3
:102640002946D4F8E00408F097FA70BD70B5044646
:102650000D4605EBC50304F5157101EB8301CA684E
:102660002946D4F8E00408F00FFB70BD10B504460D
:10267000D4F8E00408F090FB10BD2DE9F0410446C9
:102680000D4605F08000802808D105F00F0000EB12
:10269000C00104F1140000EB810607E005F00F0013
:1026A00000EBC00104F5157000EB8106314620688F
:1026B00009F0CAFF07463846BDE8F08170B5044608
:1026C0000E4606F0800080280AD106F00F0000EBCD
:1026D000C00104F1140000EB81050120687009E0DD
:1026E00006F00F0000EBC00104F5157000EB81054A
:1026F0000020687006F00F00287000BF94F8940462
:10270000012801D1022070BD012084F8940400BF8B
:102710002946206809F026FB00BF002084F89404B5
:1027200000BF00BFEFE770B504460E4606F00F008D
:102730002179884201D9012070BD06F080008028EF
:102740000AD106F00F0000EBC00104F1140000EB09
:1027500081050120687009E006F00F0000EBC00160
:1027600004F5157000EB8105002068700020A8704A
:1027700006F00F00287000BF94F89404012801D1DE
:102780000220D9E7012084F8940400BF294620687C
:1027900009F0E6FC00BF002084F8940400BF00BFED
:1027A000CAE770B504460D4600BF94F894040128AA
:1027B00001D1022070BD012084F8940400BF05F00F
:1027C0008000802805D105F00F01206809F0E1FFA5
:1027D00002E0206809F0B5FF00BF002084F89404EF
:1027E00000BF00BFE6E7024601F00F0000EBC003A8
:1027F00002F5157000EB8300406970472DE9F04742
:1028000005460E4690461F464FF0000906F0800030
:1028100080280AD106F00F0000EBC00105F114007A
:1028200000EB81040120607009E006F00F0000EB6E
:10283000C00105F5157000EB81040020607006F002
:102840000F002070C8F30A00A0602771607808B1FB
:1028500020786083022F01D10020607100BF95F8BD
:102860009404012802D10220BDE8F087012085F8F8
:10287000940400BF2146286809F080F900BF0020B9
:1028800085F8940400BF4846EEE72DE9F04105467F
:102890000E461746984606F00F0000EBC00105F5FE
:1028A000157000EB8104E760C4F8108000206061BF
:1028B000607006F00F002070A879012800D1E76150
:1028C000AA792146286809F0DFFC0020BDE8F081E4
:1028D00070B504460D4605F00F002179884201D9F4
:1028E000012070BD05F0800080280AD105F00F009E
:1028F00000EBC00104F1140000EB810601207070B0
:1029000007E005EBC50104F5157000EB810600201A
:1029100070700120B07005F00F00307000BF94F8A7
:102920009404012801D10220DBE7012084F89404FB
:1029300000BF3146206809F05AFC05F00F0028B9A5
:10294000A17904F29C42206809F0D2FB00BF00206C
:1029500084F8940400BF00BFC3E72DE9F0410546A9
:102960000E461746984606F00F0000EBC00105F131
:10297000140000EB8104E760C4F81080002060615F
:102980000120607006F00F002070A879012800D1A6
:10299000E761AA792146286809F076FC0020BDE8A5
:1029A000F0812DE9FE4F0446D4F800B05E46206861
:1029B00009F02CFF002874D1206809F066FF08B9DF
:1029C000BDE8FE8F40F608008059C0F30D20C4F822
:1029D000D404206809F059FF00F00200022805D154
:1029E0002068406900F0020021684861206809F011
:1029F0004CFF00F01000102845D12068806920F0BD
:102A0000100021688861DBF8209009F00F0000EBCE
:102A1000C00104F5157000EB810AC9F34340022898
:102A20001AD147F6F07009EA000030B3C9F30A1270
:102A30005846DAF80C1009F02DFFC9F30A11DAF83C
:102A40000C000844CAF80C00C9F30A11DAF81400A3
:102A50000844CAF8140010E0C9F3434006280CD11A
:102A6000082204F29C41584609F014FFC9F30A11E8
:102A7000DAF814000844CAF814002068806940F0AD
:102A8000100021688861206809F0FFFE00F4002032
:102A9000B0F5002F7BD10025206809F0C6FE02901A
:102AA00072E0E1E2029800F00100002868D0E9B28B
:102AB000206809F0DDFE804608F0010048B10121E0
:102AC00006F5306000EB451081602946204604F091
:102AD00029FE08F00800082809D1082106F5306011
:102AE00000EB451081602946204604F0E9FD08F01E
:102AF0001000102805D1102106F5306000EB4510BC
:102B0000816008F00200022824D1DBF8140000F0F4
:102B10008000802807D140F60400805940F480618D
:102B200040F60400815105EBC50104F5157000EB7A
:102B3000810A9AF80300012806D100208AF80300D0
:102B4000E9B2204600F09BFA022106F5306000EB66
:102B50004510816008F02000202805D1202106F5CD
:102B6000306000EB4510816008F40050B0F5005F64
:102B700006D14FF4005106F5306000EB451081603E
:102B80006D1C029840080290029800288AD12068A3
:102B900009F07BFE00F48020B0F5802F7DD1206805
:102BA00009F039FE029000259AE0029800F0010039
:102BB000002873D0E9B2206809F041FE804608F091
:102BC0000100F0B305F00F0101208840019040F6AC
:102BD00034008159019821EA000040F634018851FF
:102BE000012106F5106000EB45108160A0790128F5
:102BF00024D105EBC50104F1140000EB810005EBC5
:102C0000C502C16804F1140000EB82008068014431
:102C100005EBC50204F1140000EB8200C1606DB940
:102C200005EBC50104F1140000EB8100006928B92F
:102C300004F29C420121206809F05AFAE9B22046C8
:102C400000E001E0FFF7F2FC08F00800082805D1D9
:102C5000082106F5106000EB4510816008F01000B7
:102C6000102805D1102106F5106000EB4510816099
:102C700008F04000402805D1402106F5106000EB27
:102C80004510816008F0020002281DD129465846EF
:102C900009F07FFD05EBC50101E025E01CE004F132
:102CA000140000EB810A9AF80300012806D10020E5
:102CB0008AF80300E9B2204600F0D8F9022106F5AF
:102CC000106000EB4510816008F08000802803D17F
:102CD0002946204604F0C8FD6D1C02984008029069
:102CE000029800287FF461AF206809F0CEFD00F063
:102CF0000040B0F1004F1CD140F60400805920F094
:102D0000010140F60400815194F8CC04012807D158
:102D1000002084F8CC0400212046FFF753FC02E099
:102D2000204600F0D1FA2068406900F00040216898
:102D30004861206809F0A9FD00F40060B0F5006F5B
:102D40000ED140F60800805900F0010010B1204675
:102D500000F012FB2068406900F4006021684861BF
:102D6000206809F092FD00F48050B0F5805F7ED1BC
:102D700040F60400805920F0010140F60400815122
:102D80001021206809F005FD002732E04FF67F3161
:102D900006F5106000EB4710816006F5106000EB4F
:102DA0004710006820F4001106F5106000EB471092
:102DB00001604FF67F3106F5306000EB471081600F
:102DC00006F5306000EB4710006820F4001106F5AE
:102DD000306000EB4710016006F5306000EB4710F3
:102DE000006840F0006106F5306000EB47100160BC
:102DF0007F1C2079B842C9D840F61C00805940F0A9
:102E0000011140F61C008151E07B70B1D6F88408B6
:102E100040F00B01C6F8841840F64400805940F099
:102E20000B0140F6440081510FE040F61400805938
:102E300042F22B01084340F614018851081F8059C3
:102E400040F00B014FF401608151D6F8000820F4E6
:102E5000FE60C6F80008A17904F29C42206809F0DF
:102E600047F92068406900F48050216800E000E0E4
:102E70004861206809F009FD00F40050B0F5005FDA
:102E800017D1206808F0E2FE206809F0ACFCE07180
:102E900000F070FB0090E2792068009909F07CFD59
:102EA000204600F0F9F92068406900F400502168DC
:102EB0004861206809F0E9FC00F00800082808D102
:102EC000204600F008FA2068406900F008002168F8
:102ED0004861206809F0D9FC00F08000802818D1F2
:102EE000DBF8180020F08000CBF8180001250DE079
:102EF00005EBC50104F5157000EB8100C0780128D1
:102F000003D1E9B22046FFF7B8FB6D1C2079A84237
:102F1000EED8206809F0B9FC00F48010B0F5801FED
:102F20002DD1012522E006F5106000EB4510D0F808
:102F3000009005EBC50104F1140000EB810000795D
:102F4000012812D109F00040B0F1004F0DD101214C
:102F500005EBC50204F1140000EB8200C170E8B279
:102F600040F080012046FFF788FB6D1C2079A842C5
:102F7000D9D82068406900F4801021684861206831
:102F800009F083FC00F40010B0F5001F44D10125C6
:102F900038E006F5306000EB4510D0F8009005EB06
:102FA000C50104F5157000EB81000079012828D1D6
:102FB00009F00040B0F1004F23D194F8D40400F0A0
:102FC0000100C9F3004188421BD1012105EBC50274
:102FD00004F5157000EB8200C170DBF8180040F0BA
:102FE0008000CBF81800DBF8140000F0800040B936
:102FF00040F60400805940F4007140F6040081510D
:1030000003E06D1C2079A842C3D800BF2068406946
:1030100000F4001021684861206809F036FC00F0D7
:103020008040B0F1804F08D12046FFF7F8FA2068C1
:10303000406900F0804021684861206809F025FC63
:1030400000F0040004280FD12068D0F8049009F0A3
:103050000400042802D12046FFF708FB20684068DE
:1030600040EA09002168486000BFA9E470B5044641
:103070000D462946D4F8E00407F00EFF70BD70B588
:1030800004460D462946D4F8E00407F029FF70BD38
:10309000F8B504460CB90120F8BD266894F89504EB
:1030A00028B9002084F89404204600F0A1F80320F9
:1030B00084F89504B6F1A04F01D10021A1712068D8
:1030C00009F00EF8207C8DF8000094E80F0008F05D
:1030D000D1FD20B1022084F895040120DCE7002115
:1030E000206809F007FC20B1022084F89504012033
:1030F000D2E7002531E0012105EBC50204F11400FF
:1031000000EB8200417005EBC50104F1140000F8EA
:10311000215005EBC50100EB81004583002105EB43
:10312000C50204F1140000EB8200017105EBC50239
:1031300004F1140000EB8200816005EBC50204F18C
:10314000140000EB8200C16005EBC50204F114001D
:1031500000EB82000161681CC5B22079A842CADC7C
:1031600000252AE0002105EBC50204F5157000EBEF
:103170008200417005EBC50104F5157000F821507F
:10318000002105EBC50200EB8200017105EBC502D1
:1031900004F5157000EB8200816005EBC50204F5B3
:1031A000157000EB8200C16005EBC50204F51570D7
:1031B00000EB82000161681CC5B22079A842D1DC15
:1031C000207C8DF8000094E80F0008F095FE20B1F7
:1031D000022084F8950401205EE70020607401203D
:1031E00084F89504206808F075FE002054E700007C
:1031F00010B586B00446142101A8FDF7BEF820687A
:10320000B0F1A04F42D100BF0020009020480068DC
:1032100040F001001E4908600846006800F0010007
:10322000009000BF00BF4FF4C050019002200290F8
:1032300000200390032004900A20059001A915485E
:10324000FEF7FEFA00BF1248001D006840F0800043
:103250000F49091D086000BF002000900C48143081
:10326000006840F480400A4914310860084600684C
:1032700000F48040009000BF00BF00BF0022052185
:103280004320FFF74DF94320FFF736F906B010BD94
:10329000303802400000024070B504460125E07954
:1032A00008B9002506E0E079022801D1012501E0F6
:1032B000FDF7D2FD2946D4F8E00407F0BBFED4F8B0
:1032C000E00407F061FE70BD10B50446D4F8E004D8
:1032D00007F091FE10BD10B50446D4F8E00407F0E5
:1032E00095FE10BD70B504460D4600BF94F89404D9
:1032F000012801D1022070BD012084F8940400BF90
:1033000065742946206809F029FB00BF002084F875
:10331000940400BF00BFEEE710B5044604F29C41E0
:10332000D4F8E00407F09DFE10BD70B50446256892
:1033300000BF94F89404012801D1022070BD01203F
:1033400084F8940400BFE86800F0400030B1607B6E
:10335000012803D1A86B40F48030A863206809F0ED
:10336000E9F9206808F0A4FD00BF002084F8940467
:1033700000BF00BFE2E7000010B50446D4F8E00447
:1033800007F0CCFE2068D0F8000E40F00100216864
:10339000C1F8000EE07A28B10348006840F006004A
:1033A0000149086010BD000010ED00E070B5044652
:1033B0000D460CB9012070BD5848006800F00700A8
:1033C000A84209D255490D700846006800F0070070
:1033D000A84201D00120EEE7207800F00200022888
:1033E0001DD1207800F00400042805D14C48006865
:1033F00040F4E0504A490860207800F008000828AE
:1034000005D14748006840F4604045490860444899
:10341000006820F0F000A168084341490860207866
:1034200000F00100A8B36068012807D13C480838C3
:103430000068C0F34040B8B90120BCE760680228CA
:1034400002D06068032807D1354808380068C0F307
:10345000406048B90120AEE7314808380068C0F341
:10346000400008B90120A6E72D48006820F00300BD
:10347000616808432A490860FEF7EAFA064609E04F
:10348000FEF7E6FA801B41F28831884202D9032018
:1034900091E707E02248006800F00C006168B0EB9B
:1034A000810FEDD11D48006800F00700A84209D93E
:1034B0001A490D700846006800F00700A84201D0C4
:1034C000012078E7207800F00400042807D1144890
:1034D000006820F4E050E168084311490860207852
:1034E00000F00800082808D10D48006820F460406A
:1034F000216940EAC1000A49086000F061F8084902
:103500000968C1F30311074A515CC84006490860C5
:1035100006480068FEF776FF00204CE7003C0240BA
:1035200008380240AC9E060884C001200C00002030
:103530000F2202600D4A126802F0030242600B4A39
:10354000126802F0F0028260084A126802F4E05247
:10355000C260064A126802F46042D2080261044A5C
:10356000126802F007020A60704700000838024043
:10357000003C0240014800687047000084C0012000
:1035800000B5FFF7F7FF04490968C1F38221034A38
:10359000515CC84000BD000008380240BC9E0608CF
:1035A00000B5FFF7E7FF04490968C1F34231034A58
:1035B000515CC84000BD000008380240BC9E0608AF
:1035C0002DE9F047002400250026A1462548006883
:1035D00000F00C0020B1042805D008283AD105E0FD
:1035E000DFF8849039E0DFF8849036E01D48001F52
:1035F000006800F03F041B48001F006800F48000D2
:1036000078B11A481749091F0968C1F38811A0FB4E
:1036100001700146224600233846FCF733FE05467A
:103620000EE011480F49091F0968C1F38811A0FB7A
:1036300001700146224600233846FCF723FE05466A
:103640000848001F0068C0F30140401C4600B5FB5D
:10365000F6F902E0DFF8109000BF00BF4846BDE871
:10366000F0870000083802400024F40000127A00BD
:10367000F8B504460CB90120F8BD207800F001002F
:10368000002874D0F948006800F00C0004280DD020
:10369000F648006800F00C00082813D1F348001F1A
:1036A000006800F48000B0F5800F0BD1EF480838B7
:1036B0000068C0F34040002859D06068002856D107
:1036C0000120D9E700BF6068B0F5803F08D1E74826
:1036D0000838006840F48030E449083908601EE08A
:1036E0006068B0F5A02F0DD1E0480838006840F4BC
:1036F0008020DE49083908600846006840F48030C0
:1037000008600CE0D9480838006820F48030D749B8
:10371000083908600846006820F48020086000BF6F
:10372000606890B1FEF794F9054606E0FEF790F95F
:10373000401B642801D903209EE7CC480838006864
:10374000C0F340400028F1D011E0FEF781F90546B2
:1037500006E0FEF77DF9401B642801D903208BE7C2
:10376000C24808380068C0F340400028F1D12078F2
:1037700000F0020002285FD1BC48006800F00C0095
:1037800058B1BA48006800F00C0008281CD1B748AE
:10379000001F006800F48000B0B9B4480838006821
:1037A000C0F3400020B1E068012801D0012063E7A8
:1037B000AE480838006820F0F800216940EAC100EE
:1037C000AA490839086037E0E06800B30120A84939
:1037D0000860FEF73DF9054606E0FEF739F9401BA3
:1037E000022801D9032047E7A04808380068C0F341
:1037F00040000028F1D09D480838006820F0F8000B
:10380000216940EAC10099490839086014E00020A4
:1038100097490860FEF71CF9054606E0FEF718F91F
:10382000401B022801D9032026E790480838006889
:10383000C0F340000028F1D1207800F008000828EB
:103840002CD16069A8B101208A490860FEF700F90F
:10385000054606E0FEF7FCF8401B022801D90320CC
:103860000AE782486C300068C0F340000028F1D0BD
:1038700014E000207F490860FEF7EAF8054606E0FC
:10388000FEF7E6F8401B022801D90320F4E677484A
:103890006C300068C0F340000028F1D1207800F0BF
:1038A0000400042870D1002770483830006800F008
:1038B000805090B900BF002000906C4838300068FC
:1038C00040F080506949383108600846006800F0CF
:1038D0008050009000BF00BF01276748006800F4D7
:1038E0008070B0B96448006840F480706249086034
:1038F000FEF7AEF8054606E0FEF7AAF8401B0228E0
:1039000001D90320B8E65C48006800F48070002804
:10391000F2D000BFA068012808D154486830006880
:1039200040F001005149683108601DE0A068052899
:103930000DD14E486830006840F004004B496831B2
:1039400008600846006840F0010008600CE0474845
:103950006830006820F0010044496831086008467A
:10396000006820F00400086000BFA068A8B1FEF75E
:103970006FF8054609E0FEF76BF8401B41F288310D
:10398000884202D9032077E626E03848683000688C
:10399000C0F340000028EED013E0FEF759F80546CA
:1039A00008E0FEF755F8401B41F28831884201D902
:1039B000032061E62D4868300068C0F3400000280D
:1039C000EFD1012F07D129483830006820F080500E
:1039D00026493831086000BFA069002845D0234837
:1039E000006800F00C0008285DD0A069022845D1CD
:1039F00000201F490866FEF72BF8054606E0FEF793
:103A000027F8401B022801D9032035E6174808385B
:103A10000068C0F340600028F1D1D4E907010843F1
:103A2000616A40EA81110122A06AC2EB500041EABA
:103A300000412C20005D41EA00600C49091F08602C
:103A400001200B490866FEF703F8054606E0FDF77E
:103A5000FFFF401B022801D903200DE60348083868
:103A60000068C0F340600028F1D049E00838024007
:103A700000004742800E474200700040002021496C
:103A80000866FDF7E5FF054606E0FDF7E1FF401B90
:103A9000022801D90320EFE51B480068C0F340600D
:103AA0000028F2D12CE0A069012800D1E4E51648F5
:103AB000001D0668A069012820D006F48001E06995
:103AC00081421BD106F03F01206A814216D147F6A0
:103AD000C0703040616AB0EB811F0FD106F44031F5
:103AE0000122A06AC2EB5000B1EB004F06D106F0F4
:103AF00070612C20005DB1EB006F01D00120BBE5AF
:103B00000020B9E5000047420038024010B50446E5
:103B1000FDF718F810BD0000F0B589B004460E4658
:103B20000027032084F83400606C032820D0B6F509
:103B3000805F04D1A06B40F08050A0631CE0B6F51C
:103B4000006F07D1204605F0F2FD0546A06B284323
:103B5000A06311E03EB9204605F0B5FD0546A06B17
:103B60002843A06308E0A06B40F00060A06303E07E
:103B7000A06B40F08050A063A06B38B1174821685B
:103B80008863012084F83400012713E06068039003
:103B9000A0680490E0680590069660690790A069A7
:103BA000089006A807C88DE80700206803A90EC979
:103BB00004F0F0FE4FF40071206804F063FF054646
:103BC00035B1064821688863A06B2843A0630127AC
:103BD000012084F83400384609B0F0BDFF054000EC
:103BE0007047000010B50246506E800F0870506E8E
:103BF000C0F383604870506EC0F301608870506EEF
:103C0000000CC870B2F86400000A087192F86400F1
:103C10004871906E000DC880906EC0F3034008722A
:103C20006820805AC0F3C03048726820805AC0F3C0
:103C3000803088726820805AC0F34030C872682093
:103C4000805AC0F30030087300204873506C00287D
:103C500036D16820805A8005030DD06E43EA9070FB
:103C60000861D06EC0F3C2600875D06EC0F3026008
:103C70004875D06EC0F342508875D06EC0F3824054
:103C8000C875D06EC0F3C23008760869401C506514
:103C90000B7E506D03F007039B1C01249C40604386
:103CA0005065087A00F00F03012098409065D2E932
:103CB00015035B0A5843D0654FF40073136621E087
:103CC000506C012813D16820805C8006830AD06E76
:103CD00043EA104008610869401C83025365536D34
:103CE000D3654FF400739365936D13660AE02E4815
:103CF00013689863906B40F080509063012082F8C5
:103D0000340010BD6C20805AC0F3803001F8190FC8
:103D10006C20805AC0F3C61048706C20805C00F0A4
:103D20007F008870106FC00FC870106FC0F34170B3
:103D30000871106FC0F382604871106FC0F3835038
:103D40008871106FC0F34050C87100200872106F66
:103D5000C0F3004048727020805AC0F3C0308872AF
:103D60007020805AC0F38030C8727020805AC0F32F
:103D7000403008737020805AC0F3003048737020C0
:103D8000805AC0F3812088737020805AC0F30120CC
:103D9000C8737020805CC0F346000874012048742A
:103DA00019390020ADE70000FF0540000246506CC5
:103DB0000860906C4860D06C8860106DC860506D71
:103DC0000861906D4861D06D8861106EC8610020F7
:103DD0007047F8B50446002000906946204605F07B
:103DE0005AFC054615B1A06B2843A0630098C0F3A8
:103DF00043263046F8BD000070B50446256B2068A8
:103E0000406BC0F3C03030B105F0080018B1204657
:103E100005F01CFCF8E02068406BC0F3002000288F
:103E200062D04FF48070216888632068C06B4CF2C8
:103E30003A3188432168C8632068C06A20F00100D5
:103E40002168C86205F0080038B305F0020010B917
:103E500005F0200050B1206804F058FF06462EB14E
:103E6000A06B3043A0632046FFF7BAFE40F23A5001
:103E700021688863012084F834000020206305F065
:103E8000010010B905F0020018B1204600F07AFADE
:103E9000BAE0204600F07BFAB6E005F0800000288A
:103EA000B8D005F0200050B1206804F02FFF06467E
:103EB0002EB1A06B3043A0632046FFF791FE05F0C2
:103EC00001000028A6D105F002000028A2D1206838
:103ED000C06A20F008002168C862012084F834001C
:103EE000204600F054FA8FE02068406BC0F3803029
:103EF00030B105F0080018B1204605F04CFC83E015
:103F00002068406B40F23A21084008B1012000E0EF
:103F10000020002878D02068406BC0F3400018B122
:103F2000A06B40F00200A0632068406BC0F3C000AB
:103F300018B1A06B40F00800A0632068406BC0F38C
:103F4000401018B1A06B40F02000A0632068406BC7
:103F5000C0F3001018B1A06B40F01000A0632068FF
:103F6000406BC0F3402018B1A06B40F00800A06384
:103F700040F23A70216888632068C06B40F23A31A1
:103F800088432168C863206804F0C0FEA16B084321
:103F9000A06305F0080040B1012084F8340000203F
:103FA00020632046FFF71CFE2EE005F0800000B3E2
:103FB00005F0100010B905F0200050B11348E16B76
:103FC0000865E06BFDF716FA98B1E06B05F08DF926
:103FD0001AE005F0010010B905F0020050B10C48DC
:103FE000216C0865206CFDF705FA10B1206C05F016
:103FF0004FF909E00020A063012084F8340000207C
:1040000020632046FFF782FD70BD0000EB920008A0
:104010009192000810B504460CB9012010BD94F827
:10402000340020B900202077204600F065F80320F6
:1040300084F83400204600F00BF808B10120EDE7C9
:104040000020A0632063012084F834000020E5E70D
:1040500030B589B004460020039004900590069086
:1040600007907620089006A807C88DE8070020680A
:1040700003A90EC904F08EFC00201D4908602068C9
:1040800004F0A2FC01201A49A039C1F8A0000220C6
:10409000FDF7ACFB204605F073FA054645B101205B
:1040A00084F83400A06B2843A063012009B030BD20
:1040B000204605F0E4F905463DB1012084F83400BE
:1040C000A06B2843A0630120F0E74FF40071206843
:1040D00004F0D8FC05464DB1064821688863A06B02
:1040E0002843A063012084F83400DFE70020DDE7E7
:1040F000A0802542FF05400010B586B0044614217B
:1041000001A8FCF73AF94549206888427DD100BFF3
:10411000002000904248006840F400604049086078
:104120000846006800F40060009000BF00BF00BFB8
:10413000002000903A481438006840F004003849E4
:10414000143908600846006800F00400009000BFC1
:1041500000BF00BF002000900846006840F0080043
:1041600008600846006800F00800009000BF00BF2B
:104170004FF4F85001900220029000200390032099
:1041800004900C20059001A92648FDF759FB042056
:1041900001900220029000200390032004900C2044
:1041A000059001A92048FDF74BFB204820490860F5
:1041B0004FF00060486000211D488160C1604FF4ED
:1041C0008061016189004161890081612021C161B3
:1041D0000021016204214162032181624FF4000148
:1041E000C16289100163FDF741FA08B1FCF734FEA2
:1041F00000BF0F482064846300BF00BFE063846396
:1042000000BF00220521312000E004E0FEF788F91C
:104210003120FEF771F906B010BD0000002C0140FE
:104220004438024000080240000C0240586402403A
:10423000D0C201202DE9F04387B004460F469146D5
:104240001D46C8463FB9A06B40F00060A063012046
:1042500007B0BDE8F08394F8340001287ED1002037
:10426000A06308EB0501E06D814205D9A06B40F029
:104270000070A0630120EBE7032084F834000020E5
:104280002168C8622068C06B40F22A310843216867
:10429000C8633848216CC8633748216CC864002063
:1042A000216C08650021206C8160206C006800682A
:1042B00020F0C000216C89680843216C09680860FF
:1042C0006A029308226802F180013A46206CFDF7E9
:1042D00043FA80B12068C06B20F495702168C863F0
:1042E000264821688863A06B40F08040A0630120CD
:1042F00084F83400ACE7012021490860606C012893
:1043000001D04FEA48284FF0FF3001906802029038
:104310009020039002200490002005900120069038
:1043200001A9206804F008FB012D07D98220206331
:104330004146206804F00EFC064606E0812020631A
:104340004146206804F022FC064676B10B482168FD
:104350008863A06B3043A063012000E007E084F88D
:10436000340000202063012072E7002070E7022063
:104370006EE7000049920008D5910008FF05400053
:104380008C85254210B50446FCF72CFC10BD10B5F9
:104390000446FCF749FC10BD2DE9F04387B0044604
:1043A000884691461D464F46B8F1000F07D1A06BD5
:1043B00040F00060A063012007B0BDE8F08394F8EE
:1043C0003400012874D10020A0637919E06D814286
:1043D00005D9A06B40F00070A0630120ECE703203A
:1043E00084F8340000202168C8622068C06B40F265
:1043F0001A2108432168C8633848E16BC86338480C
:10440000E16BC8640020E16B0865606C012800D096
:104410007F02012D07D9A02020633946206804F0CF
:1044200093FC064606E0902020633946206804F09D
:10443000A7FC064666B12B4821688863A06B304311
:10444000A063012084F83400002020630120B3E73A
:104450000120254908604021E06B8160E06B006825
:10446000006820F0C000E16B89680843E16B0968CF
:10447000086069028B08216801F180024146E06B07
:10448000FDF76AF9A8B12068C06B40F21A21884391
:104490002168C863134821688863A06B40F080409E
:1044A000A063012084F8340000202063012083E70A
:1044B00011E04FF0FF3001906802029090200390CD
:1044C0000020049005900120069001A9206804F0C6
:1044D00033FA002070E702206EE70000D99200084E
:1044E000D5910008FF0540008C8525427047704734
:1044F000F8B504462068466820688568C5F38010D2
:1045000048B905F0010030B1C6F3801018B120465B
:10451000216C8847F8BDC5F3400030B1C6F3C01028
:1045200018B12046616C8847F4E7C5F3401030B9F4
:10453000C5F3801018B9C5F3002000287CD0C6F35D
:10454000401000287DD0C5F38010F0B194F85100E0
:1045500003280ED0606D40F00400606500BF0020AD
:1045600000902068C068009020688068009000BFBC
:104570000BE000BF002000902068C0680090206819
:104580008068009000BF00BFC4E7C5F3401088B149
:10459000606D40F00100606500BF00200090206861
:1045A000806800902068006820F040002168086062
:1045B00000BF00BFC5F3002058B1606D40F0080097
:1045C000606500BF0020009020688068009000BFF8
:1045D00000BF606D78B32068406820F0E00021687B
:1045E0004860012084F8510006F00200022802D041
:1045F00006F0010008B32068406820F0030021683D
:104600004860E06C50B11048E16C0865E06CFCF764
:10461000F1FE18B1606D40F040006065A06C50B1D3
:104620000948A16C0865A06CFCF7E4FE18B1606D48
:1046300040F04000606503E003E02046216F8847BA
:1046400068E700BF66E70000C599000810B504469A
:104650000CB9012010BD606A38B96068B0F5827F7E
:1046600000D105E00021E16102E0002121616161EA
:104670000021A16294F85100C8B9002084F85000CC
:104680002E48A0652E48E0652E4820662E486066BC
:104690002E48A0662E48E0662E4820672E486067A8
:1046A000A06F08B92D48A0672046A16F8847022057
:1046B00084F851002068006820F0400021680860FC
:1046C000A08800F48270218901F404410843A18983
:1046D00001F400610843217C01F002010843217DBF
:1046E00001F001010843218B01F400710843217F8F
:1046F00001F0380108432021095D01F080010843E1
:10470000218D01F400510843216808600421A0694B
:1047100001EA104094F8241001F0100108432168C8
:1047200048602068C06920F400602168C8610020EA
:104730006065012084F8510000208BE7B94B000828
:10474000F9480008BD4B0008BB4B0008FB480008B7
:10475000BF4B0008EF440008ED4400086147000823
:1047600010B586B00446142101A8FBF706FE2F49B8
:104770002068884257D100BF002000902C48006874
:1047800040F480502A4908600846006800F48050D0
:10479000009000BF00BF00BF0020009024481438E4
:1047A000006840F00100224914390860084600689A
:1047B00000F00100009000BF00BFA0200190022087
:1047C000029000200390032004900520059001A989
:1047D0001848FDF735F81848184908604FF0C060D0
:1047E00048604021154881600021C1604FF480611C
:1047F000016149004161890081610021C16101625B
:104800004162FCF733FF08B1FCF726FB00BF0B4801
:10481000A064846300BF002205212320FDF780FEF1
:104820002320FDF769FE06B010BD000000300140F6
:1048300044380240000002408864024080030020A7
:1048400010B5034600242AB9586D40F08000586521
:10485000012010BD00BF93F85000012801D10220B3
:10486000F7E7012083F8500000BF93F851000128BA
:1048700023D10A291AD2DFE801F00507090B0D0F31
:10488000111315179A6517E0DA6515E01A6613E03B
:104890005A6611E09A660FE0DA660DE01A670BE0DF
:1048A0005A6709E09A6707E0DA6705E0586D40F05B
:1048B00080005865012400BF17E093F8510078B9D3
:1048C000082902D0092904D101E09A6707E0DA67D4
:1048D00005E0586D40F080005865012400BF04E0F9
:1048E000586D40F080005865012400BF002083F817
:1048F000500000BF2046ACE7704770472DE9F843F1
:1049000004460F4616461D46FDF7A2F88046B146FE
:1049100094F85100012802D00220BDE8F88307B1C5
:104920000EB90120F9E700BF94F85000012801D129
:104930000220F2E7012084F8500000BF032084F831
:104940005100002060652763A686E686A063A087E5
:10495000E08760642064A068B0F5004F0BD1206848
:10496000006820F04000216808602068006840F47A
:104970008040216808602068006800F040004028FE
:1049800005D02068006840F0400021680860E068B9
:10499000B0F5006F37D1606810B1B9F1010F09D1DE
:1049A000206B00882168C860206B801C2063E08E2B
:1049B000401EE08623E02068806800F002000228A4
:1049C0000AD1206B00882168C860206B801C20639E
:1049D000E08E401EE08612E0FDF73AF8A0EB0800FA
:1049E000A84201D3681C00B94DB9012084F85100D8
:1049F00000BF002084F8500000BF03208DE7E08E48
:104A00000028D8D136E0606810B1B9F1010F09D1A2
:104A1000206B007821680873206B401C2063E08EB7
:104A2000401EE08623E02068806800F00200022833
:104A30000AD1206B007821680873206B401C20632A
:104A4000E08E401EE08612E0FDF702F8A0EB0800C1
:104A5000A84201D3681C00B94DB9012084F8510067
:104A600000BF002084F8500000BF032055E7E08E0F
:104A70000028D8D142462946204605F009F808B159
:104A800020206065A06850B900BF00200090206819
:104A9000C068009020688068009000BF00BF0120BF
:104AA00084F8510000BF002084F8500000BF606D02
:104AB00008B1012031E700202FE700002DE9F04187
:104AC00004460E46154694F85100012802D00220F3
:104AD000BDE8F08106B10DB90120F9E700BF94F8F7
:104AE0005000012801D10220F2E7012084F8500093
:104AF00000BF032084F85100002060652663A5866E
:104B0000E586A06360642064A087E087A068B0F5B4
:104B1000004F0BD12068006820F040002168086039
:104B20002068006840F48040216808601F48A16C3C
:104B300008641F48A16CC8631E48A16CC8640020AB
:104B4000A16C0865E38E276807F10C02216BA06C4D
:104B5000FCF702FE50B1606D40F01000606500BFD0
:104B6000002084F8500000BF0120B1E720680068F1
:104B700000F04000402805D02068006840F0400068
:104B80002168086000BF002084F8500000BF206842
:104B9000406840F02000216848602068406840F08C
:104BA000020021684860002092E70000019A000896
:104BB0000F9A0008D99900087047704770477047EE
:104BC0007047704730B502460B4600BF92F83C0074
:104BD000012801D1022030BD012082F83C0000BF35
:104BE000022082F83D00106844681068816824F053
:104BF00070041868044310684460184D1068A84297
:104C00001BD01068B0F1804F17D0154D1068A84226
:104C100013D0144D1068A8420FD0134D1068A8424D
:104C20000BD0124D1068A84207D0114D1068A84251
:104C300003D0104D1068A84205D121F080015868BA
:104C4000014310688160012082F83D0000BF002010
:104C500082F83C0000BF00BFBDE70000000001403B
:104C60000004004000080040000C00400004014027
:104C7000004001400018004010B504460CB9012066
:104C800010BD94F83D0028B9002084F83C0020466F
:104C900000F026F8022084F83D00211D206805F070
:104CA0004BF8012084F8460000BF84F83E00012143
:104CB0003F200155402001554120015500BF00BF54
:104CC000012084F84200432001554420015545202D
:104CD000015500BF012084F83D000020D0E700000E
:104CE00038B504462068B0F1804F18D100BF0020CD
:104CF00000901548006840F001001349086008461C
:104D0000006800F00100009000BF00BF00220521F4
:104D10001C20FDF705FC1C20FDF7EEFB13E00B4902
:104D2000206888420FD100BF00200090064800682C
:104D300040F00800044908600846006800F00800D8
:104D4000009000BF00BF38BD40380240000C00405A
:104D5000014691F83D00012801D001207047022052
:104D600081F83D000868C06840F001000B68D86019
:104D70001A4B086898421BD00868B0F1804F17D0D2
:104D8000174B0868984213D0164B086898420FD00A
:104D9000154B086898420BD0144B0868984207D00E
:104DA000134B0868984203D0124B086898420CD104
:104DB0000868806800F00702062A0CD008680068BE
:104DC00040F001000B68186005E00868006840F0DA
:104DD00001000B6818600020C0E7000000000140DF
:104DE0000004004000080040000C004000040140A6
:104DF00000400140001800402DE9F04104460D46F6
:104E0000002700BF94F83C00012802D10220BDE831
:104E1000F081012084F83C0000BF022084F83D00AE
:104E20002068866826F0770626F47F46206886602C
:104E30002868502833D00CDC202850D004DC00280F
:104E40004BD0102851D149E0302849D040284CD1CE
:104E500039E060282DD0702807D0B0F5805F03D0EE
:104E6000B0F5005F41D10DE041E0D5E902136A6879
:104E7000206804F0D1FF2068866846F07706206835
:104E8000866034E0D5E902136A68206804F0C4FF44
:104E90002068806840F480402168886027E0EA68E4
:104EA0006968206805F0A8F85021206804F0BFFF69
:104EB0001DE0EA686968206805F0B1F860212068A3
:104EC00004F0B5FF13E0EA686968206805F094F81B
:104ED0004021206804F0ABFF09E000BF00BF00BF25
:104EE0002968206804F0A3FF01E0012700BF00BF8C
:104EF000012084F83D0000BF002084F83C0000BF82
:104F0000384684E7704770B504462068C568206855
:104F1000066906F00200022819D105F002000228F5
:104F200015D1401F21680861012020772068806921
:104F300000F0030018B12046FFF7E4FF05E020462B
:104F400000F0C8F8204600F07CF90020207706F039
:104F50000400042819D105F00400042815D1C04329
:104F600021680861022020772068806900F4407081
:104F700018B12046FFF7C6FF05E0204600F0AAF86A
:104F8000204600F05EF90020207706F0080008288F
:104F900019D105F00800082815D1C043216808611F
:104FA000042020772068C06900F0030018B1204673
:104FB000FFF7A8FF05E0204600F08CF8204600F03F
:104FC00040F90020207706F01000102819D105F0D4
:104FD0001000102815D1C0432168086108202077EF
:104FE0002068C06900F4407018B12046FFF78AFFBE
:104FF00005E0204600F06EF8204600F022F900207F
:10500000207706F0010048B105F0010030B16FF0E3
:10501000010021680861204600F014F906F08000C4
:10502000802809D105F08000802805D1C04321687F
:1050300008612046FFF7C4FD06F04000402809D172
:1050400005F04000402805D1C04321680861204692
:1050500000F004F906F02000202809D105F0200016
:10506000202805D1C043216808612046FFF7A9FD2B
:1050700070BD000010B586B00446142101A8FBF7EE
:105080007CF91149206888421CD100BF00200090A3
:105090000E48006840F001000C49086008460068AE
:1050A00000F00100009000BF00BF0120019002202D
:1050B00002900020039004900220059001A904486A
:1050C000FCF7BEFB06B010BD000C004030380240BB
:1050D0000000024070472DE9F04104460D46164697
:1050E000002700BF94F83C00012802D10220BDE84F
:1050F000F081012084F83C0000BF36B1042E1BD0A3
:10510000082E31D00C2E5ED145E02946206804F0EF
:1051100097FE2068806940F0080021688861206857
:10512000806920F00400216888612068806929690D
:1051300008432168886148E02946206804F0B8FEE9
:105140002068806940F40060216888612068806977
:1051500020F480602168886120688069296940EABC
:1051600001202168886130E02946206804F0DEFED5
:105170002068C06940F008002168C8612068C069E3
:1051800020F004002168C8612068C06929690843CB
:105190002168C86119E02946206804F003FF2068EF
:1051A000C06940F400602168C8612068C06920F4CB
:1051B00080602168C8612068C069296940EA0120CF
:1051C0002168C86101E0012700BF00BF00BF0020C7
:1051D00084F83C0000BF384689E710B504460CB996
:1051E000012010BD94F83D0028B9002084F83C004F
:1051F000204600F025F8022084F83D00211D20689B
:1052000004F09AFD012084F8460000BF84F83E00B7
:1052100001213F200155402001554120015500BF8B
:1052200000BF012084F8420043200155442001556D
:105230004520015500BF012084F83D000020D0E743
:105240007047704710B5044603492068884201D171
:10525000FDF7AEF810BD0000000001407047704738
:10526000704700002DE9F84F044620680568206863
:10527000C668206847694FF00009CA4605F00F0963
:10528000B9F1000F0AD105F0200038B106F0200076
:1052900020B1204604F026FFBDE8F88FB9F1000FD9
:1052A0007CD007F0010018B906F49070002875D082
:1052B00005F0010030B106F4807018B1606C40F068
:1052C0000100606405F0040030B107F0010018B17E
:1052D000606C40F00200606405F0020030B107F03D
:1052E000010018B1606C40F00400606405F0080033
:1052F00048B106F0200010B907F0010018B1606C49
:1053000040F008006064606C002846D005F0200082
:1053100028B106F0200010B1204604F0E3FE20681A
:105320004069C0F3801A606C00F0080010B9BAF14F
:10533000000F2DD0204604F08FFE2068406900F059
:105340004000402820D100BF00BF2168143151E83F
:10535000001F21F040002168143141E80002002ABA
:10536000F3D100BFE06B50B17F48E16B0865E06BA3
:10537000FCF740F888B1E06B016D88470DE02046EE
:10538000FFF76EFF09E009E02046FFF769FF04E040
:105390002046FFF765FF002060647DE7206B012851
:1053A00078D105F01000002874D006F01000002815
:1053B000FAD000BF002000902068006800902068AC
:1053C0004068009000BF00BF2068406900F04000C6
:1053D000402870D1E06B006840681FFA80F8B8F18F
:1053E000000F58D0A08D404555DDA4F82E80E06B0D
:1053F000C069B0F5807F43D000BF00BF21680C3189
:1054000051E8001F21F4807021680C3141E800024E
:10541000002AF3D100BF00BF00BF2168143151E85A
:10542000001F21F001002168143141E80002002A28
:10543000F3D100BF00BF00BF2168143151E8001F45
:1054400021F040002168143141E80002002AF3D124
:1054500000BF202084F842000020206300BF00BF6E
:1054600021680C3151E8001F21F0100021680C3137
:1054700041E80002002AF3D100BFE06BFBF764FFB4
:1054800002206063A08DE28D801A81B22046FFF772
:10549000E6FE0EE052E0A08D40450AD1E06BC06907
:1054A000B0F5807F05D102206063A18D2046FFF713
:1054B000D6FEF1E6FFE7A08DE18D401A1FFA80F8D5
:1054C000E08DD0B3B8F1000F37D000BF00BF216826
:1054D0000C3151E8001F21F4907021680C3141E833
:1054E0000002002AF3D100BF00BF00BF21681431C1
:1054F00051E8001F21F001002168143141E8000249
:10550000002AF3D100BF202084F84200002020634D
:1055100000BF00BF21680C3151E8001F21F01000CE
:1055200021680C3141E80002002AF3D100BF0220BB
:10553000606341462046FFF792FEADE605F080002D
:1055400030B106F0800018B1204604F05FFFA3E6FA
:1055500005F0400030B106F0400018B1204604F0DC
:10556000B1FD99E600BF97E647A0000810B50446D4
:105570000CB9012010BDA06900B100E000BF94F893
:10558000410028B9002084F84000204600F02AF8A5
:10559000242084F841002068C06820F4005021686D
:1055A000C860204604F01CFE2068006920F490408A
:1055B000216808612068406920F02A00216848615C
:1055C0002068C06840F400502168C8600020606412
:1055D000202084F8410084F842000020606300BF6E
:1055E000C8E7000010B586B00446142101A8FAF7F8
:1055F000C4FE99492068884257D100BF002000901E
:105600009648006840F01000944908600846006819
:1056100000F01000009000BF00BF00BF002000900D
:105620008E481438006840F001008C491439086035
:105630000846006800F00100009000BF00BF4FF472
:10564000C06001900220029000200390032004908B
:105650000720059001A98248FCF7F2F881488249A9
:1056600008604FF00060486040217F488160002161
:10567000C1604FF480610161002141618161C161BC
:1056800001624162FBF7F2FF08B1FBF7E5FB00BFE7
:105690007548A063846300BF002205212520FCF724
:1056A0003FFF2520FCF728FFD3E07049206888429F
:1056B00057D100BF002000906848001F006840F4E8
:1056C00000306649091F08600846006800F4003091
:1056D000009000BF00BF00BF002000905F4814385A
:1056E000006840F001005D49143908600846006810
:1056F00000F00100009000BF00BF0C2001900220CC
:10570000029000200390032004900720059001A937
:105710005348FCF795F85648564908604FF000602A
:105720004860002153488160C1604FF4806101618D
:10573000002141618161C16101624162FBF796FF15
:1057400008B1FBF789FB00BF4A48E063846300BFF0
:10575000002205212620FCF7E3FE2620FCF7CCFEE4
:1057600077E045492068884273D100BF002000904F
:105770003A48006840F02000384908600846006850
:1057800000F02000009000BF00BF00BF002000908C
:1057900032481438006840F0040030491439086079
:1057A0000846006800F00400009000BF00BFC02061
:1057B0000190022002900020039003200490082012
:1057C000059001A92D48FCF73BF8264890382C4954
:1057D000086080054860002129488160C1604FF45D
:1057E00080610161002141618161C16101624162A9
:1057F000FBF73CFF08B1FBF72FFB00BF2048E0633D
:10580000846300BF174818381E4908604FF02060B5
:10581000486040211B4881600021C1604FF48061D5
:105820000161002141618161C16101624162FBF757
:105830001DFF08B1FBF710FB00BF1248A063846393
:1058400000BF002205214720FCF76AFE4720FCF735
:1058500053FE06B010BD0000001001404438024065
:1058600000000240B864024098C401200044004097
:1058700088600240F8C40120001401400008024082
:1058800058C50120B8C5012070472DE9F84F0446DE
:105890000E46174699464FF0000A94F8410020281A
:1058A00050D106B117B90120BDE8F88F002060641F
:1058B000212084F84100FCF7CBF88246A784E784D6
:1058C000A068B0F5805F04D1206910B90025B0460A
:1058D00002E035464FF000081EE0534600228021CA
:1058E0002046CDF8009004F0C1FD20B1202084F8BE
:1058F00041000320D8E745B9B8F80000C0F308001C
:105900002168486008F1020803E0287821684860AF
:105910006D1CE08C401EE084E08C0028DDD15346F5
:10592000002240212046CDF8009004F09FFD20B1D8
:10593000202084F841000320B6E7202084F84100AD
:105940000020B1E70220AFE7704700BFFEE700008C
:1059500010B50248FCF784F810BD00009801002043
:1059600010B50248FCF7E6F810BD000098010020D1
:1059700010B50248FCF774F810BD0000EC010020DF
:1059800010B50248FCF7D6F810BD0000EC0100206D
:10599000C16AB1F52A0F02D10121C16205E0C16AD5
:1059A000B1F12A4F01D10821C1627047F8B505460F
:1059B00000200090AC6B94F83D60394800681921D4
:1059C000B0FBF1F04FF47A71B0FBF1F0C0EBC00026
:1059D00000EB8000009000BF009820B9206C40F0E0
:1059E0002000206409E00098401E009020680068B4
:1059F00000F40070B0F5007FEED000BF606B10B116
:105A00000020616BC863A06B10B10020A16BC8635C
:105A10002068006820F480602168086000206085AC
:105A2000606B10B10020616B0865A06B10B10020A5
:105A3000A16B08652068006820F0010021680860FB
:105A400094F83D0060280AD1202084F83D00002011
:105A500084F83E0020642046FCF700F81EE006F0C3
:105A60002800282811D12068006840F00100216832
:105A700008602068006840F48060216808600020A9
:105A80002063282084F83D0005E0202084F83D00B4
:105A9000002084F83E002046FCF739F9F8BD0000EC
:105AA00084C0012001684969C1F3C01111B100210E
:105AB00002681161704700002DE9F041044694F836
:105AC0003D6094F83E70102F01D0402F07D1222E58
:105AD00005D12068006820F400602168086006F0A5
